{
  "_format": "hh-sol-artifact-1",
  "contractName": "Staking",
  "sourceName": "contracts/Staking.sol",
  "abi": [
    {
      "inputs": [
        {
          "internalType": "address",
          "name": "_stakingToken",
          "type": "address"
        },
        {
          "internalType": "uint256",
          "name": "_rewardRatioNumerator",
          "type": "uint256"
        },
        {
          "internalType": "uint256",
          "name": "_stakingTokenCap",
          "type": "uint256"
        },
        {
          "internalType": "uint256",
          "name": "_minStakingBoostAmount",
          "type": "uint256"
        }
      ],
      "stateMutability": "nonpayable",
      "type": "constructor"
    },
    {
      "inputs": [
        {
          "internalType": "address",
          "name": "target",
          "type": "address"
        }
      ],
      "name": "AddressEmptyCode",
      "type": "error"
    },
    {
      "inputs": [
        {
          "internalType": "address",
          "name": "account",
          "type": "address"
        }
      ],
      "name": "AddressInsufficientBalance",
      "type": "error"
    },
    {
      "inputs": [],
      "name": "CannotStakeMoreThanCap",
      "type": "error"
    },
    {
      "inputs": [],
      "name": "EnforcedPause",
      "type": "error"
    },
    {
      "inputs": [],
      "name": "ExpectedPause",
      "type": "error"
    },
    {
      "inputs": [],
      "name": "FailedInnerCall",
      "type": "error"
    },
    {
      "inputs": [],
      "name": "InvalidAmount",
      "type": "error"
    },
    {
      "inputs": [],
      "name": "InvalidRewardRatio",
      "type": "error"
    },
    {
      "inputs": [],
      "name": "InvalidTiersDurations",
      "type": "error"
    },
    {
      "inputs": [],
      "name": "InvalidTiersLength",
      "type": "error"
    },
    {
      "inputs": [],
      "name": "InvalidTokenAddress",
      "type": "error"
    },
    {
      "inputs": [],
      "name": "MissingRewards",
      "type": "error"
    },
    {
      "inputs": [],
      "name": "NoExcessStakingToken",
      "type": "error"
    },
    {
      "inputs": [],
      "name": "NoRewards",
      "type": "error"
    },
    {
      "inputs": [
        {
          "internalType": "address",
          "name": "owner",
          "type": "address"
        }
      ],
      "name": "OwnableInvalidOwner",
      "type": "error"
    },
    {
      "inputs": [
        {
          "internalType": "address",
          "name": "account",
          "type": "address"
        }
      ],
      "name": "OwnableUnauthorizedAccount",
      "type": "error"
    },
    {
      "inputs": [],
      "name": "ReentrancyGuardReentrantCall",
      "type": "error"
    },
    {
      "inputs": [
        {
          "internalType": "address",
          "name": "token",
          "type": "address"
        }
      ],
      "name": "SafeERC20FailedOperation",
      "type": "error"
    },
    {
      "inputs": [],
      "name": "WithdrawAmountExceedsLimit",
      "type": "error"
    },
    {
      "anonymous": false,
      "inputs": [
        {
          "indexed": false,
          "internalType": "address",
          "name": "withdrawer",
          "type": "address"
        },
        {
          "indexed": false,
          "internalType": "uint256",
          "name": "amount",
          "type": "uint256"
        }
      ],
      "name": "EmergencyWithdraw",
      "type": "event"
    },
    {
      "anonymous": false,
      "inputs": [
        {
          "indexed": false,
          "internalType": "address",
          "name": "tokenAddress",
          "type": "address"
        },
        {
          "indexed": false,
          "internalType": "uint256",
          "name": "amount",
          "type": "uint256"
        }
      ],
      "name": "ExcessTokensWithdrawn",
      "type": "event"
    },
    {
      "anonymous": false,
      "inputs": [
        {
          "indexed": false,
          "internalType": "uint256",
          "name": "minStakingBoostAmount",
          "type": "uint256"
        }
      ],
      "name": "MinStakingBoostAmountSet",
      "type": "event"
    },
    {
      "anonymous": false,
      "inputs": [
        {
          "indexed": true,
          "internalType": "address",
          "name": "previousOwner",
          "type": "address"
        },
        {
          "indexed": true,
          "internalType": "address",
          "name": "newOwner",
          "type": "address"
        }
      ],
      "name": "OwnershipTransferred",
      "type": "event"
    },
    {
      "anonymous": false,
      "inputs": [
        {
          "indexed": false,
          "internalType": "address",
          "name": "account",
          "type": "address"
        }
      ],
      "name": "Paused",
      "type": "event"
    },
    {
      "anonymous": false,
      "inputs": [
        {
          "indexed": true,
          "internalType": "address",
          "name": "staker",
          "type": "address"
        },
        {
          "indexed": false,
          "internalType": "uint256",
          "name": "rewardAmount",
          "type": "uint256"
        }
      ],
      "name": "RewardsClaimed",
      "type": "event"
    },
    {
      "anonymous": false,
      "inputs": [
        {
          "indexed": false,
          "internalType": "uint256",
          "name": "stakingTokenCapSet",
          "type": "uint256"
        }
      ],
      "name": "StakingTokenCapSet",
      "type": "event"
    },
    {
      "anonymous": false,
      "inputs": [
        {
          "components": [
            {
              "internalType": "uint256",
              "name": "minStakingDuration",
              "type": "uint256"
            },
            {
              "internalType": "uint256",
              "name": "multiplier",
              "type": "uint256"
            }
          ],
          "indexed": false,
          "internalType": "struct IStaking.Tier[]",
          "name": "newTiers",
          "type": "tuple[]"
        }
      ],
      "name": "TiersSet",
      "type": "event"
    },
    {
      "anonymous": false,
      "inputs": [
        {
          "indexed": true,
          "internalType": "address",
          "name": "staker",
          "type": "address"
        },
        {
          "indexed": false,
          "internalType": "uint256",
          "name": "amount",
          "type": "uint256"
        }
      ],
      "name": "TokensStaked",
      "type": "event"
    },
    {
      "anonymous": false,
      "inputs": [
        {
          "indexed": true,
          "internalType": "address",
          "name": "staker",
          "type": "address"
        },
        {
          "indexed": false,
          "internalType": "uint256",
          "name": "amount",
          "type": "uint256"
        }
      ],
      "name": "TokensWithdrawn",
      "type": "event"
    },
    {
      "anonymous": false,
      "inputs": [
        {
          "indexed": false,
          "internalType": "address",
          "name": "account",
          "type": "address"
        }
      ],
      "name": "Unpaused",
      "type": "event"
    },
    {
      "anonymous": false,
      "inputs": [
        {
          "indexed": false,
          "internalType": "uint256",
          "name": "oldNumerator",
          "type": "uint256"
        },
        {
          "indexed": false,
          "internalType": "uint256",
          "name": "newNumerator",
          "type": "uint256"
        }
      ],
      "name": "UpdatedRewardRatio",
      "type": "event"
    },
    {
      "inputs": [],
      "name": "REWARD_RATIO_DENOMINATOR",
      "outputs": [
        {
          "internalType": "uint256",
          "name": "",
          "type": "uint256"
        }
      ],
      "stateMutability": "view",
      "type": "function"
    },
    {
      "inputs": [],
      "name": "TIME_UNIT",
      "outputs": [
        {
          "internalType": "uint256",
          "name": "",
          "type": "uint256"
        }
      ],
      "stateMutability": "view",
      "type": "function"
    },
    {
      "inputs": [],
      "name": "calculateAPR",
      "outputs": [
        {
          "internalType": "uint256",
          "name": "_apr",
          "type": "uint256"
        }
      ],
      "stateMutability": "view",
      "type": "function"
    },
    {
      "inputs": [],
      "name": "claimRewards",
      "outputs": [],
      "stateMutability": "nonpayable",
      "type": "function"
    },
    {
      "inputs": [],
      "name": "emergencyWithdraw",
      "outputs": [],
      "stateMutability": "nonpayable",
      "type": "function"
    },
    {
      "inputs": [
        {
          "internalType": "address",
          "name": "_user",
          "type": "address"
        }
      ],
      "name": "getCurrentMultiplier",
      "outputs": [
        {
          "internalType": "uint256",
          "name": "_multiplier",
          "type": "uint256"
        }
      ],
      "stateMutability": "view",
      "type": "function"
    },
    {
      "inputs": [],
      "name": "getRewardRatio",
      "outputs": [
        {
          "internalType": "uint256",
          "name": "_numerator",
          "type": "uint256"
        },
        {
          "internalType": "uint256",
          "name": "_denominator",
          "type": "uint256"
        }
      ],
      "stateMutability": "view",
      "type": "function"
    },
    {
      "inputs": [
        {
          "internalType": "address",
          "name": "_staker",
          "type": "address"
        }
      ],
      "name": "getStakeInfo",
      "outputs": [
        {
          "internalType": "uint256",
          "name": "_tokensStaked",
          "type": "uint256"
        },
        {
          "internalType": "uint256",
          "name": "_rewards",
          "type": "uint256"
        }
      ],
      "stateMutability": "view",
      "type": "function"
    },
    {
      "inputs": [],
      "name": "minStakingBoostAmount",
      "outputs": [
        {
          "internalType": "uint256",
          "name": "",
          "type": "uint256"
        }
      ],
      "stateMutability": "view",
      "type": "function"
    },
    {
      "inputs": [],
      "name": "owner",
      "outputs": [
        {
          "internalType": "address",
          "name": "",
          "type": "address"
        }
      ],
      "stateMutability": "view",
      "type": "function"
    },
    {
      "inputs": [],
      "name": "pause",
      "outputs": [],
      "stateMutability": "nonpayable",
      "type": "function"
    },
    {
      "inputs": [],
      "name": "paused",
      "outputs": [
        {
          "internalType": "bool",
          "name": "",
          "type": "bool"
        }
      ],
      "stateMutability": "view",
      "type": "function"
    },
    {
      "inputs": [],
      "name": "renounceOwnership",
      "outputs": [],
      "stateMutability": "nonpayable",
      "type": "function"
    },
    {
      "inputs": [
        {
          "internalType": "uint256",
          "name": "_minStakingBoostAmount",
          "type": "uint256"
        }
      ],
      "name": "setMinStakingBoostAmount",
      "outputs": [],
      "stateMutability": "nonpayable",
      "type": "function"
    },
    {
      "inputs": [
        {
          "internalType": "uint256",
          "name": "_numerator",
          "type": "uint256"
        }
      ],
      "name": "setRewardRatio",
      "outputs": [],
      "stateMutability": "nonpayable",
      "type": "function"
    },
    {
      "inputs": [
        {
          "internalType": "uint256",
          "name": "_stakingTokenCap",
          "type": "uint256"
        }
      ],
      "name": "setStakingTokenCap",
      "outputs": [],
      "stateMutability": "nonpayable",
      "type": "function"
    },
    {
      "inputs": [
        {
          "internalType": "uint256[]",
          "name": "_durations",
          "type": "uint256[]"
        },
        {
          "internalType": "uint256[]",
          "name": "_multipliers",
          "type": "uint256[]"
        }
      ],
      "name": "setTiers",
      "outputs": [],
      "stateMutability": "nonpayable",
      "type": "function"
    },
    {
      "inputs": [
        {
          "internalType": "uint256",
          "name": "_amount",
          "type": "uint256"
        }
      ],
      "name": "stake",
      "outputs": [],
      "stateMutability": "nonpayable",
      "type": "function"
    },
    {
      "inputs": [
        {
          "internalType": "address",
          "name": "",
          "type": "address"
        }
      ],
      "name": "stakers",
      "outputs": [
        {
          "internalType": "uint128",
          "name": "timeOfLastUpdate",
          "type": "uint128"
        },
        {
          "internalType": "uint128",
          "name": "timeOfLastBoostUpdate",
          "type": "uint128"
        },
        {
          "internalType": "uint64",
          "name": "conditionIdOfLastUpdate",
          "type": "uint64"
        },
        {
          "internalType": "uint256",
          "name": "amountStaked",
          "type": "uint256"
        },
        {
          "internalType": "uint256",
          "name": "unclaimedRewards",
          "type": "uint256"
        }
      ],
      "stateMutability": "view",
      "type": "function"
    },
    {
      "inputs": [],
      "name": "stakingToken",
      "outputs": [
        {
          "internalType": "address",
          "name": "",
          "type": "address"
        }
      ],
      "stateMutability": "view",
      "type": "function"
    },
    {
      "inputs": [],
      "name": "stakingTokenBalance",
      "outputs": [
        {
          "internalType": "uint256",
          "name": "",
          "type": "uint256"
        }
      ],
      "stateMutability": "view",
      "type": "function"
    },
    {
      "inputs": [],
      "name": "stakingTokenCap",
      "outputs": [
        {
          "internalType": "uint256",
          "name": "",
          "type": "uint256"
        }
      ],
      "stateMutability": "view",
      "type": "function"
    },
    {
      "inputs": [],
      "name": "stakingTokenDecimals",
      "outputs": [
        {
          "internalType": "uint16",
          "name": "",
          "type": "uint16"
        }
      ],
      "stateMutability": "view",
      "type": "function"
    },
    {
      "inputs": [
        {
          "internalType": "uint256",
          "name": "",
          "type": "uint256"
        }
      ],
      "name": "tiers",
      "outputs": [
        {
          "internalType": "uint256",
          "name": "minStakingDuration",
          "type": "uint256"
        },
        {
          "internalType": "uint256",
          "name": "multiplier",
          "type": "uint256"
        }
      ],
      "stateMutability": "view",
      "type": "function"
    },
    {
      "inputs": [
        {
          "internalType": "address",
          "name": "newOwner",
          "type": "address"
        }
      ],
      "name": "transferOwnership",
      "outputs": [],
      "stateMutability": "nonpayable",
      "type": "function"
    },
    {
      "inputs": [],
      "name": "unpause",
      "outputs": [],
      "stateMutability": "nonpayable",
      "type": "function"
    },
    {
      "inputs": [
        {
          "internalType": "uint256",
          "name": "_amount",
          "type": "uint256"
        }
      ],
      "name": "withdraw",
      "outputs": [],
      "stateMutability": "nonpayable",
      "type": "function"
    },
    {
      "inputs": [
        {
          "internalType": "address",
          "name": "tokenAddress",
          "type": "address"
        },
        {
          "internalType": "uint256",
          "name": "amount",
          "type": "uint256"
        }
      ],
      "name": "withdrawExcessTokens",
      "outputs": [],
      "stateMutability": "nonpayable",
      "type": "function"
    }
  ],
  "bytecode": "0x60803462000286576001600160401b0390601f62001cd938819003918201601f19168301929190848411838510176200028b578160809284926040968752833981010312620002865780516001600160a01b03938482169182900362000286576020830151926060858201519101516000966001885533156200026e57600154875191339082167f8be0079c531659141344cd1fd0a4f28419497f9722a3daafe3b4186f6b6457e08b80a36001600160a81b0319163360ff60a01b19161760015584156200025f57506002549160045560055583156200024e576001600160a01b03198116831760b01c821692600184018381116200023a577fffff0000000000000000ffff00000000000000000000000000000000000000009092161760b09190911b600160b01b600160f01b0316176002558351426001600160501b0390811694919260608401908111848210176200022657865284835260208084018881528488019384528589526007909152868820935184549151600160501b600160a01b0390841660501b166001600160a01b03199092169216600160501b600160a01b031916919091171782556001905191015580620001c9575b8251611a379081620002a28239f35b6000198101908111620002125783526007602052918190208054600160501b600160a01b03191660509390931b600160501b600160a01b031692909217909155803880620001ba565b634e487b7160e01b84526011600452602484fd5b634e487b7160e01b88526041600452602488fd5b634e487b7160e01b88526011600452602488fd5b8451638df3c4f560e01b8152600490fd5b630f58058360e11b8152600490fd5b8651631e4fbdf760e01b815260048101899052602490fd5b600080fd5b634e487b7160e01b600052604160045260246000fdfe6040608081526004908136101561001557600080fd5b600091823560e01c8063039af9eb146112725780630aebf7d21461124c5780630c096bc5146111f65780630f190f30146111a95780631b8ebc3c14610f555780632ae84dc014610f385780632e1a7d4d14610e49578063372500ab14610cc15780633f4ba83a14610c5257806353e052ac14610ae25780635bd80a7b14610ac35780635c975abb14610a9c578063715018a614610a3f57806372f702f314610a1657806382b24442146109f95780638456cb59146109985780638caaa271146109795780638da5cb5b146109505780639168ae72146108dc57806397e1b4bc14610894578063a694fc3a146105c4578063a943600d146103bb578063b9f7a7b514610395578063c345315314610316578063db2e21bc1461022e578063e7f481ae1461020f578063f2494f3b146101e75763f2fde38b1461015557600080fd5b346101e35760203660031901126101e35761016e611300565b906101776115ba565b6001600160a01b039182169283156101cd575050600154826bffffffffffffffffffffffff60a01b821617600155167f8be0079c531659141344cd1fd0a4f28419497f9722a3daafe3b4186f6b6457e08380a380f35b51631e4fbdf760e01b8152908101849052602490fd5b8280fd5b50503461020b578160031936011261020b57602090610204611546565b9051908152f35b5080fd5b50503461020b578160031936011261020b57602090516301da9c008152f35b5090346101e357826003193601126101e3576102486115f6565b33835260066020526002818420015491821561030857507f5fafa99d0643513820be26656b45130b01e1c03062e1266bf36f88cbd3bd9695916102fe9161028e33611685565b338552600660205280852080546001600160801b031669ffffffffffffffffffff60801b4260801b161781558590600201556102cc826003546113b8565b6003556002546102e890839033906001600160a01b0316611647565b5133815260208101919091529081906040820190565b0390a16001815580f35b905163162908e360e11b8152fd5b82843461039257602036600319011261039257610331611300565b6001600160a01b0381168083526006602052838320600281015493909285929085610372575060039350815260066020522001545b82519182526020820152f35b92505050610387600361038d93015491611716565b9061163a565b610366565b80fd5b50503461020b578160031936011261020b5760209061ffff60025460a01c169051908152f35b5091903461020b576020806003193601126101e35783356103da6115ba565b6002546001600160401b0390818160b01c16826103f68261151a565b168752600785528587209186519361040d8561134b565b8760018554956001600160501b0387818099168a5260501c168a890152015495019480865286146105b45785156105b457600183019081116105a1576001600160401b0360b01b9060b01b16906001600160401b0360b01b191617600255866001856104e18542169589818c8051976104858961134b565b8a8952838901818152828a019788528a825260079094522096518754925169ffffffffffffffffffff60501b941660501b939093166001600160a01b0319909216921669ffffffffffffffffffff60501b191691909117178455565b519101558061051f575b50507f500565725075c91b0705fd881692da2d4aca424abe9b233c0dfbeabae6315b7f94955051918351928352820152a180f35b600019810190811161058e57865260078452848620805469ffffffffffffffffffff60501b191660509290921b69ffffffffffffffffffff60501b169190911790559394507f500565725075c91b0705fd881692da2d4aca424abe9b233c0dfbeabae6315b7f938594386104eb565b634e487b7160e01b875260118852602487fd5b634e487b7160e01b895260118a52602489fd5b8751638df3c4f560e01b81528a90fd5b50346101e357602080600319360112610890578135916105e26115f6565b6105ea611619565b8215610882576105fc8360035461163a565b8154106108745733855260068252600284862001546005548082109081610860575b50610830575b156107d15761063233611685565b60025484516370a0823160e01b808252308285015290949092916001600160a01b03919082168587602481845afa9687156107c757899761078c575b50916106aa6024928795948a51916323b872dd60e01b8884015233868401523060448401526064830152606482526106a58261137c565b6118a0565b600254169387519485938492835230908301525afa908115610782578591610731575b507fb539ca1e5c8d398ddf1c41c30166f33404941683be4683319b57669a93dad4ef926106f9916113b8565b923385526006825260028186200161071285825461163a565b90556107208460035461163a565b600355519283523392a26001815580f35b90508181813d831161077b575b6107488183611397565b8101031261077757517fb539ca1e5c8d398ddf1c41c30166f33404941683be4683319b57669a93dad4ef6106cd565b8480fd5b503d61073e565b84513d87823e3d90fd5b93929096508584813d83116107c0575b6107a68183611397565b810103126107bc579251959192916106aa61066e565b8880fd5b503d61079c565b88513d8b823e3d90fd5b338552600682528385206001600160501b0342166001600160801b03198254161790556001600160401b0361080c8160025460b01c1661151a565b903387526006845260018688200191166001600160401b0319825416179055610632565b3386526006835284862080546001600160801b031669ffffffffffffffffffff60801b4260801b16179055610624565b905061086c858361163a565b10153861061e565b835163754b388360e11b8152fd5b835163162908e360e11b8152fd5b8380fd5b828434610392578060031936011261039257816001916001600160401b036108c28160025460b01c1661151a565b168152600760205220015481519081526127106020820152f35b50503461020b57602036600319011261020b5760a09181906001600160a01b03610904611300565b168152600660205220908154916001600160401b0360018201541660036002830154920154928051946001600160801b038116865260801c602086015284015260608301526080820152f35b50503461020b578160031936011261020b5760015490516001600160a01b039091168152602090f35b50503461020b578160031936011261020b576020906003549051908152f35b50503461020b578160031936011261020b5760207f62e78cea01bee320cd4e420270b5ea74000d11b0c9f74754ebdbfc544b05a258916109d66115ba565b6109de611619565b6001805460ff60a01b1916600160a01b17905551338152a180f35b50346101e357826003193601126101e35760209250549051908152f35b50503461020b578160031936011261020b5760025490516001600160a01b039091168152602090f35b8334610392578060031936011261039257610a586115ba565b600180546001600160a01b0319811690915581906001600160a01b03167f8be0079c531659141344cd1fd0a4f28419497f9722a3daafe3b4186f6b6457e08280a380f35b50503461020b578160031936011261020b5760209060ff60015460a01c1690519015158152f35b50503461020b578160031936011261020b576020906005549051908152f35b5082903461020b578260031936011261020b57610afd611300565b60243591610b096115ba565b6001600160a01b03828116918215610c44578415610c365786516370a0823160e01b81523082820152602081602481875afa908115610c2c578791610bf6575b508083600254168514610bc9575b508511610bbb575094610b9584610bb5937f2bf40533d6f7de04b51bdab79c3441c23a446916e573d281f69cd98cda46197197986001541690611647565b516001600160a01b03909216825260208201929092529081906040820190565b0390a180f35b8651632c26db6360e01b8152fd5b600354915081811115610be65790610be0916113b8565b88610b57565b885163b652a58360e01b81528390fd5b90506020813d602011610c24575b81610c1160209383611397565b81010312610c20575188610b49565b8680fd5b3d9150610c04565b88513d89823e3d90fd5b865163162908e360e11b8152fd5b8651630f58058360e11b8152fd5b50346101e357826003193601126101e357610c6b6115ba565b6001549060ff8260a01c1615610cb3575060ff60a01b1916600155513381527f5db9ee0a495bf2e6ff9c91a7834c1ba4fdd244a5e8aa4e537bd38aeae4b073aa90602090a180f35b8251638dfc202b60e01b8152fd5b5090346101e357826003193601126101e357610cdb6115f6565b610ce3611619565b33835260209060068252610d006003828620015461038733611716565b928315610e3b5760025482516370a0823160e01b815230818401526001600160a01b03929185908290602490829087165afa8015610e31578790610e02575b610d4d9150600354906113b8565b8511610df4575090610de6847ffc30cddea38e2bf4d6ea7d3f9ed3b6ad7f176419f4963bd81318067a4aee73fe9493338852600685528760038582206001600160501b0342166001600160801b031982541617815501556001600160401b03610dbc8160025460b01c1661151a565b90338a52600687526001868b200191166001600160401b0319825416179055339060025416611647565b519283523392a26001815580f35b8251630220ccb960e11b8152fd5b508481813d8311610e2a575b610e188183611397565b81010312610c2057610d4d9051610d3f565b503d610e0e565b84513d89823e3d90fd5b9051630fec21fd60e21b8152fd5b5090346101e35760203660031901126101e357813591610e676115f6565b610e6f611619565b338452600660205260028285200154838015918215610f2e575b50506103085750610e9933611685565b338352600660205280832080546001600160801b031669ffffffffffffffffffff60801b4260801b16178155600201610ed38382546113b8565b9055610ee1826003546113b8565b600355600254610efd90839033906001600160a01b0316611647565b519081527f6352c5382c4a4578e712449ca65e83cdb392d045dfcf1cad9615189db2da244b60203392a26001815580f35b1090508338610e89565b50503461020b578160031936011261020b57602090516127108152f35b5082346103925782600319360112610392576001600160401b039180358381116101e357610f86903690830161131b565b909460249586358681116111a557610fa1903690860161131b565b9690610fab6115ba565b87851480159061119d575b61118d575b600880548015610ff7576000190190610fd3826112b0565b610fe6576001818b809355015555610fbb565b634e487b7160e01b8a528989528b8afd5b505087899596939496885b81811061109e578989805190602090602083016020845260085480915281840192600886527ff3f7a9fe364faab93b216da50a3214154f22a0a2b415b23a84c8169e8b636ee39286915b83831061107d57877faa4445051e370bfbe441733e8db78b143b18ab0869168167d6ed5d0f6a3a735088880389a180f35b8454865260018086015487830152958201956002909501949092019161104c565b8015158061114f575b61113f576110b68183896115e6565b356110c28285876115e6565b358a51918b83018381108982111761112d578c5282526020820190815260089081546801000000000000000081101561112d576111069060019384820190556112b0565b93909361111c5751835551910155600101611002565b634e487b7160e01b8e528d8a528b8efd5b634e487b7160e01b8e5260418a528b8efd5b8851630f378e5760e41b81528690fd5b5061115b8183896115e6565b35600019820182811161117b5761117390848a6115e6565b3510156110a7565b634e487b7160e01b8c5260118852898cfd5b835163171f015160e01b81528690fd5b508415610fb6565b8580fd5b5090346101e35760203660031901126101e357816020917f9f7b1faf4b48432505602e36bf1be0a05f2ee04dcb069b8c83752953b5b47edd933580926111ed6115ba565b5551908152a180f35b5090346101e35760203660031901126101e3578135916112146115ba565b82156103085750816020917f854960ff0bac9a51f37f7dd7dd6beb855e1ccff44c817fefa3d45c440211e4b69360055551908152a180f35b50503461020b57602036600319011261020b5760209061020461126d611300565b6113db565b5082903461020b57602036600319011261020b573590600854821015610392575061129c906112b0565b506001815491015482519182526020820152f35b6008548110156112ea57600860005260011b7ff3f7a9fe364faab93b216da50a3214154f22a0a2b415b23a84c8169e8b636ee30190600090565b634e487b7160e01b600052603260045260246000fd5b600435906001600160a01b038216820361131657565b600080fd5b9181601f84011215611316578235916001600160401b038311611316576020808501948460051b01011161131657565b606081019081106001600160401b0382111761136657604052565b634e487b7160e01b600052604160045260246000fd5b60a081019081106001600160401b0382111761136657604052565b90601f801991011681019081106001600160401b0382111761136657604052565b919082039182116113c557565b634e487b7160e01b600052601160045260246000fd5b6001600160a01b031660009081526006602052604080822090519091906114018161137c565b8254926001600160801b0393848116835260801c9361145360208401958087526001946001600160401b03600186015416604082015260806003600287015496606084019788520154910152426113b8565b9160649160085496871592831561150d575b508215611501575b50506114f957835b8581106114b25750505050600019820191821161149e57506114986001916112b0565b50015490565b634e487b7160e01b81526011600452602490fd5b6114bb816112b0565b505483106114ca578301611475565b92939150935081156000146114df5750505090565b91925060001981019190821161149e5750611498906112b0565b935050505090565b5116159050388061146d565b5160055411925038611465565b6001600160401b0390811660001901919082116113c557565b818102929181159184041417156113c557565b60035480156115b4576115b0612710916001600160401b0361156e8160025460b01c1661151a565b166000526007602052604080600020600182519161158b8361134b565b80546001600160501b0390818116855260501c16602084015201549182910152611533565b0490565b50600090565b6001546001600160a01b031633036115ce57565b60405163118cdaa760e01b8152336004820152602490fd5b91908110156112ea5760051b0190565b600260005414611607576002600055565b604051633ee5aeb560e01b8152600490fd5b60ff60015460a01c1661162857565b60405163d93c066560e01b8152600490fd5b919082018092116113c557565b60405163a9059cbb60e01b60208201526001600160a01b03929092166024830152604480830193909352918152611683916106a5606483611397565b565b61168e81611716565b9060018060a01b03169060009082825260066020526116b56003604084200191825461163a565b90558181526006602052604081206001600160501b0342166001600160801b0319825416179055600160406001600160401b03926116f98460025460b01c1661151a565b9481526006602052200191166001600160401b0319825416179055565b90600091600060018060a01b038216815260209060066020526040808220928151926117418461137c565b8454926001600160801b0393848116865260801c60208601526001600160401b0360019681600182015416918284890152600360028301549260608a019384520154608089015260025460b01c169682995b888b106117a7575050505050505050505050565b90919293949596979864486b6dc0008b9d8861185c611852859f6118428f8f9060648f8f908d948f858f91611839958b8f61184a9d815260078752878120958851906117f28261134b565b8754976001600160501b03808a16998a855260501c16809a840152015498899101525014156000146118965750509a5b50801561188b5761183390956113db565b90611533565b049616906113b8565b8a5190611973565b939093611973565b949094048361163a565b9281611883575b501561187c57505b9c0199989796959493929190611793565b905061186b565b905038611863565b5061183342956113db565b51169b9050611822565b60018060a01b031690600080826020829451910182865af13d15611967573d906001600160401b03821161195357906118fb91604051916118eb6020601f19601f8401160184611397565b82523d84602084013e5b8461199e565b90815191821515928361192b575b5050506119135750565b60249060405190635274afe760e01b82526004820152fd5b81929350906020918101031261020b5760200151908115918215036103925750388080611909565b634e487b7160e01b83526041600452602483fd5b6118fb906060906118f5565b91908215611994578083029283040361198c5760019190565b600091508190565b5060019150600090565b906119c557508051156119b357805190602001fd5b604051630a12f52160e11b8152600490fd5b815115806119f8575b6119d6575090565b604051639996b31560e01b81526001600160a01b039091166004820152602490fd5b50803b156119ce56fea2646970667358221220a7c365341115fc21c3fcfc62781437c038c9ff489466873f6957f5c0b7e6083664736f6c63430008180033",
  "linkReferences": {},
  "deployedLinkReferences": {}
}